:060000000A128A110C280F
:10000800FE00030EF1000A08F2000A128A11792F85
:100018000A128A110F28F801F901FA01831603134D
:10002800B501B601B701B80183010A128A15B82CC7
:100038008312031347088039CC004C08D1004708C5
:10004800CC004C07CD004D08D700C61F2C282D2802
:100058002E28571457080319322833284228570ADC
:10006800031D3728382840280030C7000030C60054
:100078000030C5000030C400C6174A280030C70049
:100088000030C6000030C5000030C4004B0880397D
:10009800CC004C08D1064B08CC004C07CD004D08CD
:1000A800D200CA1F582859285A285214520803192E
:1000B8005E285F286E28520A031D632864286C286E
:1000C8000030CB000030CA000030C9000030C80042
:1000D800CA1776280030CB000030CA000030C900AB
:1000E8000030C800520803197A287B28802857084E
:1000F800031D7F28802889280030C7000030C600EB
:100108000030C5000030C4007C2B4408CC004C08EB
:10011800F3004A080A128A11C0270A128A117408C1
:1001280083120313DD007308DC005C08CC00CD01EA
:10013800CE01CF014F08D6004E08D5004D08D40097
:100148004C08D3005D08CC00CD01CE01CF014F088B
:10015800DB004E08DA004D08D9004C08D8004508E5
:10016800CC004C08F30049080A128A11C0270A1269
:100178008A11740883120313DD007308DC005C081D
:10018800CC00CD01CE01CF014C08D3074D08031197
:100198000318013E0319D128D4074E080311031888
:1001A800013E0319D828D5074F0803110318013E4B
:1001B8000319DF28D6075D08CC00CD01CE01CF0199
:1001C8004C08D8074D0803110318013E0319ED2800
:1001D800D9074E0803110318013E0319F428DA075A
:1001E8004F0803110318013E0319FB28DB074608D3
:1001F800CC004C08F30048080A128A11C0270A12DA
:100208008A11740883120313DD007308DC005C088C
:10021800CC00CD01CE01CF014C08D3074D08031106
:100228000318013E03191929D4074E0803110318AE
:10023800013E03192029D5074F0803110318013E71
:1002480003192729D6075D08CC00CD01CE01CF01BF
:100258004C08D8074D0803110318013E0319352926
:10026800D9074E0803110318013E03193C29DA0780
:100278004F0803110318013E03194329DB0708300F
:10028800CC000310D30DD40DD50DD60DCC0B4529BC
:100298004508CC004C08F30048080A128A11C02708
:1002A8000A128A11740883120313DD007308DC0034
:1002B8005C08CC005D08CD00CE01CF014C08D30707
:1002C8004D0803110318013E03196B29D4074E0882
:1002D80003110318013E03197229D5074F080311AA
:1002E8000318013E03197929D6074408CC004C08A5
:1002F800F30049080A128A11C0270A128A117408E1
:1003080083120313DD007308DC005C08CC005D0871
:10031800CD00CE01CF014C08D3074D0803110318B7
:10032800013E03199829D4074E0803110318013E0A
:1003380003199F29D5074F0803110318013E031914
:10034800A629D6070830CC000310D30DD40DD50D3F
:10035800D60DCC0BA8294408CC004C08F30048085B
:100368000A128A11C0270A128A1174088312031309
:10037800DD007308DC005C08CC005D08CD00CE0110
:10038800CF014C08D3074D0803110318013E031988
:10039800CE29D4074E0803110318013E0319D529A5
:1003A800D5074F0803110318013E0319DC29D607A6
:1003B8004508CC004C08F3004A080A128A11C027E5
:1003C8000A128A11740883120313DD007308DC0013
:1003D8005C08CC005D08CD00CE01CF014C08D807E1
:1003E8004D0803110318013E0319FB29D9074E08CC
:1003F80003110318013E0319022ADA074F080311F3
:100408000318013E0319092ADB074608CC004C08EB
:10041800F30049080A128A11C0270A128A117408BF
:1004280083120313DD007308DC005C08CC005D0850
:10043800CD00CE01CF014C08D8074D080311031891
:10044800013E0319282AD9074E0803110318013E53
:1004580003192F2ADA074F0803110318013E03195D
:10046800362ADB074608CC004C08F3004A080A1273
:100478008A11C0270A128A11740883120313DD0037
:100488007308DC005C08CC005D08CD00CE01CF010C
:1004980008300310CC0DCD0DCE0DCF0DFF3E031D42
:1004A8004D2A4C08D8074D0803110318013E0319BB
:1004B8005E2AD9074E0803110318013E0319652A5D
:1004C800DA074F0803110318013E03196C2ADB07EA
:1004D8005308CC005408CD005508CE005608CF006C
:1004E80018300310CF0CCE0CCD0CCC0CFF3E031DE6
:1004F800752A4C08D8074D0803110318013E031943
:10050800862AD9074E0803110318013E03198D2ABC
:10051800DA074F0803110318013E0319942ADB0771
:100528000830CC000310D30DD40DD50DD60DCC0B4F
:10053800962A57085207CC00CD01CD0D4C08823EB3
:10054800DC004D080318013EFF3EDD00C82A0130DB
:10055800CC000310D80DD90DDA0DDB0DCC0BAD2A6C
:10056800D61FB72AB82AB92A58140130CC0003106C
:10057800D30DD40DD50DD60DCC0BBB2AFF30DC071F
:100588000318DD0AFF30DD07DA1FCB2ACC2AAB2A95
:10059800D201D61FD02AD12AED2AFF305305CC002C
:1005A800FF305405CD00FF305505CE007F3056058D
:1005B800CF004F084E044D044C040319E42AE52AE1
:1005C800E82AD201D20AED2A581CEB2AEC2AED2A95
:1005D800E52A52080319F12AF22A232B0130D807F9
:1005E800003003180130D907003003180130DA074A
:1005F800003003180130DB075B1C032B042B232B73
:100608005808CC005908CD005A08CE005B08CF0026
:100618000130D0004F0DCF0CCE0CCD0CCC0CD00B34
:100628000E2B4F08DB004E08DA004D08D9004C08A5
:10063800D8000130DC070318DD0A0030DD075D084B
:10064800803AFF0080307F02031D2C2BFF305C02B4
:10065800031C2F2B302B3B2B7F3083120313DB0023
:100668008030DA000030D9000030D800702B8312B7
:1006780003135D08803AFF0080307F02031D462B7C
:1006880001305C020318492B4A2B562B0030831289
:100698000313DB000030DA000030D9000030D80046
:1006A800D101702B831203135C08CC004C08D700CF
:1006B800FF30D805FF30D9057F30DA050030DB057B
:1006C800571C672B682B692BDA175708CC000310C7
:1006D8004C0CCD004D08DB005108CC004C08DB0465
:1006E8005B08C7005A08C6005908C5005808C40066
:1006F80008008312031361088039E6006608831630
:100708000313A000831203136108E6006607E700DD
:10071800670883160313A20083120313E01F952BA7
:10072800962B992B8316031322148316031322087E
:1007380003199F2BA02BB32B220A031DA42BA52B37
:10074800AF2B003083120313E1000030E0000030CB
:10075800DF000030DE008312E017E101BD2B00301E
:1007680083120313E1000030E0000030DF000030A6
:10077800DE0065088039E600660883160313A100C9
:10078800210820060319C92BCA2BCB2B201783124B
:1007980003136508E6006607E70067088316031376
:1007A800A10083120313E41FDA2BDB2BDE2B831645
:1007B800031321148316031321080319E42BE52BD3
:1007C800F82B210A031DE92BEA2BF42B00308312A6
:1007D8000313E5000030E4000030E3000030E200DD
:1007E8008312E417E501022C003083120313E5009D
:1007F8000030E4000030E3000030E2008316031309
:10080800220821020318092C0A2C802C201F0D2CE9
:100818000E2C162C803083120313E600660883160C
:100828000313A006220883120313E6006608831642
:100838000313A300210883120313E6006608831636
:100848000313A200230883120313E6006608831625
:100858000313A100831203135E08E60066088316DB
:100868000313A300831203136208E6006608DE0080
:1008780083160313230883120313E6006608E200B5
:100888005F08E600660883160313A30083120313A8
:100898006308E6006608DF00831603132308831243
:1008A8000313E6006608E3006008E600660883169E
:1008B8000313A300831203136408E6006608E0002C
:1008C80083160313230883120313E6006608E40063
:1008D8006108E600660883160313A3008312031356
:1008E8006508E6006608E1008316031323088312EF
:1008F8000313E6006608E50083160313A301210825
:1009080083120313E600E7016708E900831603135F
:100918002208831203136602E800031CE90369082E
:10092800803AFF0080307F02031D9C2C1A30680239
:10093800031C9F2CA02CF22C831203136108600463
:100948005F045E04031DA92CAB2C0130AC2C0030D5
:10095800E600660883160313A3000030831203130E
:10096800E1000030E0000030DF000030DE008316D8
:100978000313210883120313E60066088316031382
:10098800A200FA2C231CC92CCA2CD72C23088312AA
:100998000313E6000310660C0138E70067088316A6
:1009A8000313A300D92C0310A30C831203135E1C9A
:1009B800DE2CDF2CE22C83160313A31701308312DD
:1009C800E600610DE10CE00CDF0CDE0CE60BE52C1B
:1009D8000130E600660883160313A2078316031383
:1009E80021082202031CF92CFA2CC62C201BFD2CF2
:1009F800FE2C5A2D2208031D022D032D0E2D00302A
:100A080083120313E1000030E0000030DF00003003
:100A1800DE00BC2E831203136208DE07630803118D
:100A28000318013E0319192DDF0764080311031881
:100A3800013E0319202DE007650803110318013E44
:100A48000319272DE107611C2A2D2B2D202E831633
:100A58000313231C302D312D3E2D2308831203133D
:100A6800E6000310660C0138E700670883160313D5
:100A7800A300402D0310A30C831203135E1C452D05
:100A8800462D492D83160313A31701308312E60060
:100A9800610DE10CE00CDF0CDE0CE60B4C2D013097
:100AA800E600660883160313A207202E8312031399
:100AB8006108803AFF006508803A7F02031D6E2DA9
:100AC80064086002031D6E2D63085F02031D6E2D0E
:100AD80062085E020318712D722DCE2DFF30E600DC
:100AE800FF30E700FF30E800FF30E9006208EA0065
:100AF8006308EB006408EC006508ED005E08EA0294
:100B08005F08031C5F0F892D8A2DEB026008031C08
:100B1800600F8F2D902DEC026108031C610F952D3D
:100B2800962DED026A08E6076B0803186B0F9D2DDA
:100B38009E2DE7076C0803186C0FA32DA42DE8075A
:100B48006D0803186D0AE9076908E1006808E00004
:100B58006708DF006608DE008030E6006608831656
:100B68000313A006A309A30A2308031DBC2DBD2D4A
:100B7800DC2D013083120313DE0700300318013027
:100B8800DF07003003180130E00700300318013098
:100B9800E107DC2D6208DE026308031C630FDF0235
:100BA8006408031C640FE0026508031C650FE1027A
:100BB8008312610860045F045E04031DE42DE52DC3
:100BC8001B2E831603132308031DEB2DEC2D1B2E60
:100BD800003083120313E1000030E0000030DF0032
:100BE8000030DE00BC2E0130E6000310DE0DDF0D04
:100BF800E00DE10DE60BF92D83160313A31F052E57
:100C0800062E092E831203135E1483160313231C66
:100C18000E2E0F2E122E0314A30D142E0310A30D47
:100C280022080319182E192E1B2E0130A202831236
:100C3800E01F1F2E202EF72D83160313A101A31FDB
:100C4800262E272E392E23087F3903192C2E2D2ED8
:100C5800322E83160313A101A10A392E831203131E
:100C68005E1C372E382E392E2D2E8316031321089D
:100C780003193F2E402E7C2E013083120313DE070A
:100C8800003003180130DF07003003180130E00797
:100C9800003003180130E107611C532E542E7C2EBE
:100CA8005E08E6005F08E7006008E8006108E90000
:100CB8000130EA00690DE90CE80CE70CE60CEA0BD8
:100CC8005E2E6908E1006808E0006708DF00660832
:100CD800DE0083160313220A0319732E742E7C2E4A
:100CE800013083120313E600660883160313A20774
:100CF80083160313220A0319822E832E882E2208B4
:100D0800031D872E882E9A2E003083120313E100CC
:100D18000030E0000030DF000030DE0083160313EF
:100D28002208031D982E992E9A2EA001221C9D2E72
:100D38009E2EA22E83120313E017A82E7F30831253
:100D48000313E6006608E0058316031322088312DE
:100D58000313E6000310660CE7006708E10083163A
:100D68000313A01FB82EB92EBC2E83120313E1174C
:100D7800080083120313A40024080319C42EC52EE7
:100D8800D92EF61FC82EC92ED92E7309A6007409AC
:100D9800A7007509A8007609A900A60A0319A70AD9
:100DA8000319A80A0319A90AE12E7608A9007508EB
:100DB800A8007408A7007308A600760875047404D0
:100DC8007304031DE82EE92EF22E0030F6000030E1
:100DD800F5000030F4000030F300782F9630A000C2
:100DE8002008A500042F0130A0002008A507013025
:100DF8000310A90CA80CA70CA60CFF3E031DFC2E83
:100E0800FE302905031D092F0A2FF72E262F013042
:100E1800A0002008A5070130A607003003180130FC
:100E2800A707003003180130A80700300318013065
:100E3800A90701300310A90CA80CA70CA60CFF3EAB
:100E4800031D1E2FFF302905031D2B2F2C2F0B2FC1
:100E5800382F0130A5020130A0000310A60DA70D00
:100E6800A80DA90DA00B312FA81B3B2F3C2F422FFB
:100E7800023025020318412F422F2D2F2518452F08
:100E8800462F4E2FFF30A605FF30A7057F30A80557
:100E9800FF30A9050310A50C2508A000A101A20197
:100EA800A30118300310A00DA10DA20DA30DFF3E44
:100EB800031D562F2008A6042108A7042208A80409
:100EC8002308A904240803196A2F6B2F702FF61F13
:100ED8006E2F6F2F702FA9172908F6002808F50024
:100EE8002708F4002608F300080083120313861E5F
:100EF8007E2F7F2F8D2F0C1F822F832FB92F1E0837
:100F0800F000700883160313B800831203130C1340
:100F1800B92F8C1D902F912FA42F1308F000700863
:100F2800F8000F30780603199A2F9B2FA02F780806
:100F3800880079089300A22F790893008C11B92FA3
:100F48000B1CA72FA82FB92F061BAB2FAC2FB12F27
:100F58000130F0007008F907B72F861BB42FB52FA2
:100F6800B72F0130F9020B10B92F72088A00710EE1
:100F78008300FE0E7E0E090083120313A400A00155
:100F8800A1017308F500F6017508A2007608A30010
:100F9800241CCF2FD02FD62F2208A0070318A10A70
:100FA8002308A10701300310A20DA30DFF3E031D66
:100FB800D72F0310A40C2408031DE32FE42FCC2FF4
:0A0FC8002108F4002008F3000800DF
:10172C0001308316031788008901831603130F08F1
:10173C008F3940388F000F1421308500831203132A
:10174C008501FF308316031386008801831203136F
:10175C008801861EB22BB32BE32B10308316031398
:10176C008700831203138701F0309405141294162A
:10177C00831603131417941738088312031393005A
:10178C003F309F05831603131F129F12C330831221
:10179C0003139F05831603139F13831203131F1444
:1017AC000330F300F30BD82B831203130C138316A3
:1017BC0003130C170B178B17252C183083160313D8
:1017CC008700831203138701831603138113C03020
:1017DC009500831203131408F03904389400141282
:1017EC009416831603131417941307153E309200A6
:1017FC008312031397013F3097051708F0390C3803
:10180C009700013095001708CF39103897008C10CD
:10181C000330920412158C1C142C152C112C8C10CA
:10182C00831603130711831203138C1183160313EE
:10183C008C150B178B178B15C03096000B100800EE
:10184C00031083160313260D270DA80028088312F6
:10185C000313EF006F08031D342C352C402C003083
:10186C0083160313A7000030A6000030A50000303B
:10187C00A400B72C831603132408A8002508A9007C
:10188C002608AA002708AB001F300310AB0CAA0CCB
:10189C00A90CA80CFF3E031D4B2C2808AC002C08EF
:1018AC0083120313EE0083160313A617FF30A4054F
:1018BC00FF30A505FF30A6050030A7059630831232
:1018CC000313EF02EF1F6B2C6C2C8A2C6F08803AE1
:1018DC00973E0318722C732C742C352C013003108A
:1018EC0083160313A70CA60CA50CA40CFF3E031D1A
:1018FC00752C0130A800280883120313EF07031D71
:10190C00882C892C742CA52C20306F02031C8F2C56
:10191C00902CA02C352C013083160313A800031037
:10192C00A40DA50DA60DA70DA80B952C01308312A7
:10193C000313EF026F08031DA42CA52C912C6E0829
:10194C000319A92CAA2CB72C83160313A409A509D7
:10195C00A609A709A40A0319A50A0319A60A0319BB
:10196C00A70A08000A128A1596230A128A158312EE
:10197C000313861EC22CC32C2D2D9F18C62CC72CCE
:10198C00C82C9F140517043083160313B4003D3084
:10199C00B300B30BCF2CB40BCF2C83120313051352
:1019AC00043083160313B4003D30B300B30BDC2CAE
:1019BC00B40BDC2C83160313380837060319E72CF9
:1019CC00E82CF62C380883120313930083160313A8
:1019DC00141CF12CF22CEC2C3808B3003308B70093
:1019EC00831203130517043083160313B4003D3020
:1019FC00B300B30BFF2CB40BFF2C8312031385170E
:101A0C00043083160313B4003D30B300B30B0C2D1C
:101A1C00B40B0C2D8312031385130430831603139C
:101A2C00B4003D30B300B30B192DB40B192D0F308E
:101A3C0083120313930083160313141C262D272DD6
:101A4C00212D83120313130888008517BD2C8316D0
:101A5C000313AD01FF30B3003308AE000530AF0007
:101A6C000030B0001E30B1000030B20083120313FE
:101A7C0008080A128A156D250A128A158316031393
:101A8C002E08B6002D08B5003608B4003508B30092
:101A9C000310B40CB30C0310B40CB30C3308831246
:101AAC00031395008316031335080339B300B30EE3
:101ABC00831203131708831603133306CF39330627
:101ACC00831203139700BD2C0A128A110C28F700FD
:101ADC00831603132F08F3003008F400F501F60108
:101AEC0000300A128A11BD260A128A157608831252
:101AFC000313E5007508E4007408E3007308E200C2
:101B0C00831603132F083102F3003008031C300A2C
:101B1C003202F400F501F60100300A128A11BD26DA
:101B2C000A128A15760883120313B1007508B000E7
:101B3C007408AF007308AE00831603132D082E0231
:101B4C00F300F401031CF403F501F41BF503750811
:101B5C00F60001300A128A11BD260A128A1576087F
:101B6C0083120313AD007508AC007408AB00730846
:101B7C00AA000A128A1523260A128A158312031345
:101B8C002D08CB002C08CA002B08C9002A08C80055
:101B9C00831603132D087702F300F401031CF403DE
:101BAC00F501F41BF5037508F60001300A128A11D1
:101BBC00BD260A128A15760883120313C70075080E
:101BCC00C6007408C5007308C4000A128A111C20D0
:101BDC000A128A15831203134708E1004608E00035
:101BEC004508DF004408DE000A128A117D230A1220
:101BFC008A1583120313610883160313A70083123B
:101C0C000313600883160313A600831203135F08E3
:101C1C0083160313A500831203135E0883160313A4
:101C2C00A4000A128A1526240A128A158316031395
:101C3C002508AE002408AD000800831203133108F8
:101C4C008039B2003208BB003108B2003207B30051
:101C5C003308C200B01F332E342E352E42144208E6
:101C6C000319392E3A2E4A2E420A031D3E2E3F2EC0
:101C7C00472E0030B1000030B0000030AF00003013
:101C8C00AE00B017B101522E0030B1000030B000E0
:101C9C000030AF000030AE002D088039B2003208A1
:101CAC00BB062D08B2003207B3003308C300AC1FCB
:101CBC00602E612E622E431443080319662E672E84
:101CCC00772E430A031D6B2E6C2E742E0030AD0044
:101CDC000030AC000030AB000030AA00AC17AD01F6
:101CEC007F2E0030AD000030AC000030AB00003077
:101CFC00AA002D082C042B042A04031D862E872EE3
:101D0C00A02E0030B1000030B0000030AF00003029
:101D1C00AE008030B0047F30B1043B08B200320812
:101D2C00B1043108AD003008AC002F08AB002E0810
:101D3C00AA00FF2F4208031DA42EA52EAE2E0030A4
:101D4C00AD000030AC000030AB000030AA00FF2F1B
:101D5C004208B200B3013308B50043083202B400A4
:101D6C00031CB50334087F3EBC0035080318013E44
:101D7C00003EBD003108BA003008B9002F08B80089
:101D8C002E08B7000030B1000030B0000030AF00BA
:101D9C000030AE000030C1000030C0000030BF0089
:101DAC000030BE00C301242F43080319DE2EDF2EA2
:101DBC00FF2E0130B2000310B70DB80DB90DBA0DDE
:101DCC00B20BE12E0130B2000310AE0DAF0DB00D11
:101DDC00B10DB20BEA2EC11FF42EF52EF62E2E14D9
:101DEC000130B2000310BE0DBF0DC00DC10DB20B02
:101DFC00F82E2D083A02031D0D2F2C083902031D55
:101E0C000D2F2B083802031D0D2F2A083702031C37
:101E1C00102F112F202F41172A08B7022B08031C53
:101E2C002B0FB8022C08031C2C0FB9022D08031C15
:101E3C002D0FBA020130B2003208C3071A30430228
:101E4C00031C292F2A2FDA2E3A08390438043704B8
:101E5C000319312F322F512F3E14512F0130B20064
:101E6C000310AE0DAF0DB00DB10DB20B362FC11F5F
:101E7C00402F412F422F2E140130B2000310BE0D03
:101E8C00BF0DC00DC10DB20B442FFF30BC070318A2
:101E9C00BD0AFF30BD07B01F542F552F342FC3017F
:101EAC00C11F592F5A2F762FFF303E05B200FF303D
:101EBC003F05B300FF304005B4007F304105B5004D
:101ECC00350834043304320403196D2F6E2F712F2F
:101EDC00C301C30A762F2E1C742F752F762F6E2FED
:101EEC00430803197A2F7B2FAC2F0130AE0700303B
:101EFC0003180130AF07003003180130B007003071
:101F0C0003180130B107311C8C2F8D2FAC2F2E08EC
:101F1C00B2002F08B3003008B4003108B50001300E
:101F2C00B600350DB50CB40CB30CB20CB60B972F28
:101F3C003508B1003408B0003308AF003208AE00E9
:101F4C000130BC070318BD0A0030BD073D08803ABC
:101F5C00FF0080307F02031DB52FFF303C02031CB5
:101F6C00B82FB92FC72FFF3083120313BC000030DA
:101F7C00BD000030B1000030B0000030AF000030C8
:101F8C00AE00831203133D08803AFF0080307F02BD
:101F9C00031DD22F01303C020318D52FD62FE32F6F
:101FAC0083120313BC01BD010030B1000030B0003E
:101FBC000030AF000030AE00BB01831203133C08AD
:101FCC00B2003208C200421CEC2FED2FEF2FB017DD
:101FDC00F32F7F30B2003208B0054208B200031074
:101FEC00320CB3003308B1003B08B2003208B10424
:041FFC00972E080014
:08400000FF3FFF3FFF3FFF3FC0
:04400E00D420FF3F7C
:00000001FF
